{
  "_format": "hh-sol-artifact-1",
  "contractName": "SpaceCoin",
  "sourceName": "contracts/SpaceCoin.sol",
  "abi": [
    {
      "inputs": [
        {
          "internalType": "uint256",
          "name": "initialSupply",
          "type": "uint256"
        }
      ],
      "stateMutability": "nonpayable",
      "type": "constructor"
    },
    {
      "anonymous": false,
      "inputs": [
        {
          "indexed": true,
          "internalType": "address",
          "name": "owner",
          "type": "address"
        },
        {
          "indexed": true,
          "internalType": "address",
          "name": "spender",
          "type": "address"
        },
        {
          "indexed": false,
          "internalType": "uint256",
          "name": "value",
          "type": "uint256"
        }
      ],
      "name": "Approval",
      "type": "event"
    },
    {
      "anonymous": false,
      "inputs": [
        {
          "indexed": true,
          "internalType": "address",
          "name": "previousOwner",
          "type": "address"
        },
        {
          "indexed": true,
          "internalType": "address",
          "name": "newOwner",
          "type": "address"
        }
      ],
      "name": "OwnershipTransferred",
      "type": "event"
    },
    {
      "anonymous": false,
      "inputs": [
        {
          "indexed": true,
          "internalType": "address",
          "name": "from",
          "type": "address"
        },
        {
          "indexed": true,
          "internalType": "address",
          "name": "to",
          "type": "address"
        },
        {
          "indexed": false,
          "internalType": "uint256",
          "name": "value",
          "type": "uint256"
        }
      ],
      "name": "Transfer",
      "type": "event"
    },
    {
      "inputs": [
        {
          "internalType": "address",
          "name": "_address",
          "type": "address"
        }
      ],
      "name": "addWhitelisted",
      "outputs": [],
      "stateMutability": "nonpayable",
      "type": "function"
    },
    {
      "inputs": [
        {
          "internalType": "address",
          "name": "owner",
          "type": "address"
        },
        {
          "internalType": "address",
          "name": "spender",
          "type": "address"
        }
      ],
      "name": "allowance",
      "outputs": [
        {
          "internalType": "uint256",
          "name": "",
          "type": "uint256"
        }
      ],
      "stateMutability": "view",
      "type": "function"
    },
    {
      "inputs": [
        {
          "internalType": "address",
          "name": "spender",
          "type": "address"
        },
        {
          "internalType": "uint256",
          "name": "amount",
          "type": "uint256"
        }
      ],
      "name": "approve",
      "outputs": [
        {
          "internalType": "bool",
          "name": "",
          "type": "bool"
        }
      ],
      "stateMutability": "nonpayable",
      "type": "function"
    },
    {
      "inputs": [
        {
          "internalType": "address",
          "name": "account",
          "type": "address"
        }
      ],
      "name": "balanceOf",
      "outputs": [
        {
          "internalType": "uint256",
          "name": "",
          "type": "uint256"
        }
      ],
      "stateMutability": "view",
      "type": "function"
    },
    {
      "inputs": [],
      "name": "chargeTax",
      "outputs": [],
      "stateMutability": "nonpayable",
      "type": "function"
    },
    {
      "inputs": [],
      "name": "contribute",
      "outputs": [],
      "stateMutability": "payable",
      "type": "function"
    },
    {
      "inputs": [],
      "name": "decimals",
      "outputs": [
        {
          "internalType": "uint8",
          "name": "",
          "type": "uint8"
        }
      ],
      "stateMutability": "view",
      "type": "function"
    },
    {
      "inputs": [
        {
          "internalType": "address",
          "name": "spender",
          "type": "address"
        },
        {
          "internalType": "uint256",
          "name": "subtractedValue",
          "type": "uint256"
        }
      ],
      "name": "decreaseAllowance",
      "outputs": [
        {
          "internalType": "bool",
          "name": "",
          "type": "bool"
        }
      ],
      "stateMutability": "nonpayable",
      "type": "function"
    },
    {
      "inputs": [],
      "name": "getBalance",
      "outputs": [
        {
          "internalType": "uint256",
          "name": "",
          "type": "uint256"
        }
      ],
      "stateMutability": "view",
      "type": "function"
    },
    {
      "inputs": [
        {
          "internalType": "address",
          "name": "_address",
          "type": "address"
        }
      ],
      "name": "getByAddress",
      "outputs": [
        {
          "internalType": "uint256",
          "name": "",
          "type": "uint256"
        }
      ],
      "stateMutability": "view",
      "type": "function"
    },
    {
      "inputs": [],
      "name": "getContributionLimit",
      "outputs": [
        {
          "internalType": "uint256",
          "name": "",
          "type": "uint256"
        }
      ],
      "stateMutability": "view",
      "type": "function"
    },
    {
      "inputs": [],
      "name": "getPhase",
      "outputs": [
        {
          "internalType": "enum Phase",
          "name": "",
          "type": "uint8"
        }
      ],
      "stateMutability": "view",
      "type": "function"
    },
    {
      "inputs": [],
      "name": "getPhaseLimit",
      "outputs": [
        {
          "internalType": "uint256",
          "name": "",
          "type": "uint256"
        }
      ],
      "stateMutability": "view",
      "type": "function"
    },
    {
      "inputs": [
        {
          "internalType": "address",
          "name": "spender",
          "type": "address"
        },
        {
          "internalType": "uint256",
          "name": "addedValue",
          "type": "uint256"
        }
      ],
      "name": "increaseAllowance",
      "outputs": [
        {
          "internalType": "bool",
          "name": "",
          "type": "bool"
        }
      ],
      "stateMutability": "nonpayable",
      "type": "function"
    },
    {
      "inputs": [],
      "name": "name",
      "outputs": [
        {
          "internalType": "string",
          "name": "",
          "type": "string"
        }
      ],
      "stateMutability": "view",
      "type": "function"
    },
    {
      "inputs": [],
      "name": "owner",
      "outputs": [
        {
          "internalType": "address",
          "name": "",
          "type": "address"
        }
      ],
      "stateMutability": "view",
      "type": "function"
    },
    {
      "inputs": [],
      "name": "renounceOwnership",
      "outputs": [],
      "stateMutability": "nonpayable",
      "type": "function"
    },
    {
      "inputs": [
        {
          "internalType": "enum Phase",
          "name": "phase",
          "type": "uint8"
        }
      ],
      "name": "setPhase",
      "outputs": [],
      "stateMutability": "nonpayable",
      "type": "function"
    },
    {
      "inputs": [],
      "name": "symbol",
      "outputs": [
        {
          "internalType": "string",
          "name": "",
          "type": "string"
        }
      ],
      "stateMutability": "view",
      "type": "function"
    },
    {
      "inputs": [],
      "name": "tokenTransfer",
      "outputs": [],
      "stateMutability": "nonpayable",
      "type": "function"
    },
    {
      "inputs": [],
      "name": "totalSupply",
      "outputs": [
        {
          "internalType": "uint256",
          "name": "",
          "type": "uint256"
        }
      ],
      "stateMutability": "view",
      "type": "function"
    },
    {
      "inputs": [
        {
          "internalType": "address",
          "name": "recipient",
          "type": "address"
        },
        {
          "internalType": "uint256",
          "name": "amount",
          "type": "uint256"
        }
      ],
      "name": "transfer",
      "outputs": [
        {
          "internalType": "bool",
          "name": "",
          "type": "bool"
        }
      ],
      "stateMutability": "nonpayable",
      "type": "function"
    },
    {
      "inputs": [
        {
          "internalType": "address",
          "name": "sender",
          "type": "address"
        },
        {
          "internalType": "address",
          "name": "recipient",
          "type": "address"
        },
        {
          "internalType": "uint256",
          "name": "amount",
          "type": "uint256"
        }
      ],
      "name": "transferFrom",
      "outputs": [
        {
          "internalType": "bool",
          "name": "",
          "type": "bool"
        }
      ],
      "stateMutability": "nonpayable",
      "type": "function"
    },
    {
      "inputs": [
        {
          "internalType": "address",
          "name": "newOwner",
          "type": "address"
        }
      ],
      "name": "transferOwnership",
      "outputs": [],
      "stateMutability": "nonpayable",
      "type": "function"
    }
  ],
  "bytecode": "0x60806040526000600560146101000a81548160ff0219169083151502179055506000600560156101000a81548160ff021916908315150217905550685150ae84a8cdf00000600655681043561a88293000006007556000600860006101000a81548160ff021916908360028111156200007d576200007c6200062c565b5b02179055503480156200008f57600080fd5b5060405162002d7b38038062002d7b8339818101604052810190620000b59190620004a6565b6040518060400160405280600981526020017f5370616365436f696e00000000000000000000000000000000000000000000008152506040518060400160405280600481526020017f5753504300000000000000000000000000000000000000000000000000000000815250816003908051906020019062000139929190620003df565b50806004908051906020019062000152929190620003df565b50505062000175620001696200018e60201b60201c565b6200019660201b60201c565b6200018733826200025c60201b60201c565b50620006d2565b600033905090565b6000600560009054906101000a900473ffffffffffffffffffffffffffffffffffffffff16905081600560006101000a81548173ffffffffffffffffffffffffffffffffffffffff021916908373ffffffffffffffffffffffffffffffffffffffff1602179055508173ffffffffffffffffffffffffffffffffffffffff168173ffffffffffffffffffffffffffffffffffffffff167f8be0079c531659141344cd1fd0a4f28419497f9722a3daafe3b4186f6b6457e060405160405180910390a35050565b600073ffffffffffffffffffffffffffffffffffffffff168273ffffffffffffffffffffffffffffffffffffffff161415620002cf576040517f08c379a0000000000000000000000000000000000000000000000000000000008152600401620002c69062000510565b60405180910390fd5b620002e360008383620003d560201b60201c565b8060026000828254620002f7919062000560565b92505081905550806000808473ffffffffffffffffffffffffffffffffffffffff1673ffffffffffffffffffffffffffffffffffffffff16815260200190815260200160002060008282546200034e919062000560565b925050819055508173ffffffffffffffffffffffffffffffffffffffff16600073ffffffffffffffffffffffffffffffffffffffff167fddf252ad1be2c89b69c2b068fc378daa952ba7f163c4a11628f55a4df523b3ef83604051620003b5919062000532565b60405180910390a3620003d160008383620003da60201b60201c565b5050565b505050565b505050565b828054620003ed90620005c7565b90600052602060002090601f0160209004810192826200041157600085556200045d565b82601f106200042c57805160ff19168380011785556200045d565b828001600101855582156200045d579182015b828111156200045c5782518255916020019190600101906200043f565b5b5090506200046c919062000470565b5090565b5b808211156200048b57600081600090555060010162000471565b5090565b600081519050620004a081620006b8565b92915050565b600060208284031215620004bf57620004be6200068a565b5b6000620004cf848285016200048f565b91505092915050565b6000620004e7601f836200054f565b9150620004f4826200068f565b602082019050919050565b6200050a81620005bd565b82525050565b600060208201905081810360008301526200052b81620004d8565b9050919050565b6000602082019050620005496000830184620004ff565b92915050565b600082825260208201905092915050565b60006200056d82620005bd565b91506200057a83620005bd565b9250827fffffffffffffffffffffffffffffffffffffffffffffffffffffffffffffffff03821115620005b257620005b1620005fd565b5b828201905092915050565b6000819050919050565b60006002820490506001821680620005e057607f821691505b60208210811415620005f757620005f66200065b565b5b50919050565b7f4e487b7100000000000000000000000000000000000000000000000000000000600052601160045260246000fd5b7f4e487b7100000000000000000000000000000000000000000000000000000000600052602160045260246000fd5b7f4e487b7100000000000000000000000000000000000000000000000000000000600052602260045260246000fd5b600080fd5b7f45524332303a206d696e7420746f20746865207a65726f206164647265737300600082015250565b620006c381620005bd565b8114620006cf57600080fd5b50565b61269980620006e26000396000f3fe60806040526004361061014b5760003560e01c8063715018a6116100b6578063cdcb68401161006f578063cdcb684014610494578063d7bb99ba146104bf578063dd62ed3e146104c9578063eced028014610506578063f2fde38b14610531578063fa1e19e51461055a5761014b565b8063715018a6146103845780638da5cb5b1461039b57806395d89b41146103c6578063a457c2d7146103f1578063a9059cbb1461042e578063c03afb591461046b5761014b565b806326f867d51161010857806326f867d51461027457806330257bf71461028b578063313ce567146102c857806339509351146102f35780636c4eca271461033057806370a08231146103475761014b565b806306fdde0314610150578063095ea7b31461017b57806310154bad146101b857806312065fe0146101e157806318160ddd1461020c57806323b872dd14610237575b600080fd5b34801561015c57600080fd5b50610165610585565b6040516101729190611dcb565b60405180910390f35b34801561018757600080fd5b506101a2600480360381019061019d9190611a9f565b610617565b6040516101af9190611d95565b60405180910390f35b3480156101c457600080fd5b506101df60048036038101906101da91906119b2565b610635565b005b3480156101ed57600080fd5b506101f66107ab565b6040516102039190611fad565b60405180910390f35b34801561021857600080fd5b506102216107b3565b60405161022e9190611fad565b60405180910390f35b34801561024357600080fd5b5061025e60048036038101906102599190611a4c565b6107bd565b60405161026b9190611d95565b60405180910390f35b34801561028057600080fd5b506102896108b5565b005b34801561029757600080fd5b506102b260048036038101906102ad91906119b2565b61095d565b6040516102bf9190611fad565b60405180910390f35b3480156102d457600080fd5b506102dd6109a6565b6040516102ea9190611fc8565b60405180910390f35b3480156102ff57600080fd5b5061031a60048036038101906103159190611a9f565b6109af565b6040516103279190611d95565b60405180910390f35b34801561033c57600080fd5b50610345610a5b565b005b34801561035357600080fd5b5061036e600480360381019061036991906119b2565b610c86565b60405161037b9190611fad565b60405180910390f35b34801561039057600080fd5b50610399610cce565b005b3480156103a757600080fd5b506103b0610d56565b6040516103bd9190611d7a565b60405180910390f35b3480156103d257600080fd5b506103db610d80565b6040516103e89190611dcb565b60405180910390f35b3480156103fd57600080fd5b5061041860048036038101906104139190611a9f565b610e12565b6040516104259190611d95565b60405180910390f35b34801561043a57600080fd5b5061045560048036038101906104509190611a9f565b610efd565b6040516104629190611d95565b60405180910390f35b34801561047757600080fd5b50610492600480360381019061048d9190611adf565b610f1b565b005b3480156104a057600080fd5b506104a9611059565b6040516104b69190611fad565b60405180910390f35b6104c7611063565b005b3480156104d557600080fd5b506104f060048036038101906104eb9190611a0c565b61129a565b6040516104fd9190611fad565b60405180910390f35b34801561051257600080fd5b5061051b611321565b6040516105289190611db0565b60405180910390f35b34801561053d57600080fd5b50610558600480360381019061055391906119b2565b611338565b005b34801561056657600080fd5b5061056f611430565b60405161057c9190611fad565b60405180910390f35b6060600380546105949061215c565b80601f01602080910402602001604051908101604052809291908181526020018280546105c09061215c565b801561060d5780601f106105e25761010080835404028352916020019161060d565b820191906000526020600020905b8154815290600101906020018083116105f057829003601f168201915b5050505050905090565b600061062b61062461143a565b8484611442565b6001905092915050565b61063d61143a565b73ffffffffffffffffffffffffffffffffffffffff1661065b610d56565b73ffffffffffffffffffffffffffffffffffffffff16146106b1576040517f08c379a00000000000000000000000000000000000000000000000000000000081526004016106a890611ecd565b60405180910390fd5b60001515600960008373ffffffffffffffffffffffffffffffffffffffff1673ffffffffffffffffffffffffffffffffffffffff16815260200190815260200160002060009054906101000a900460ff16151514156107a8576001600960008373ffffffffffffffffffffffffffffffffffffffff1673ffffffffffffffffffffffffffffffffffffffff16815260200190815260200160002060006101000a81548160ff0219169083151502179055506000600a60008373ffffffffffffffffffffffffffffffffffffffff1673ffffffffffffffffffffffffffffffffffffffff168152602001908152602001600020819055505b50565b600047905090565b6000600254905090565b60006107ca84848461160d565b6000600160008673ffffffffffffffffffffffffffffffffffffffff1673ffffffffffffffffffffffffffffffffffffffff168152602001908152602001600020600061081561143a565b73ffffffffffffffffffffffffffffffffffffffff1673ffffffffffffffffffffffffffffffffffffffff16815260200190815260200160002054905082811015610895576040517f08c379a000000000000000000000000000000000000000000000000000000000815260040161088c90611ead565b60405180910390fd5b6108a9856108a161143a565b858403611442565b60019150509392505050565b6108bd61143a565b73ffffffffffffffffffffffffffffffffffffffff166108db610d56565b73ffffffffffffffffffffffffffffffffffffffff1614610931576040517f08c379a000000000000000000000000000000000000000000000000000000000815260040161092890611ecd565b60405180910390fd5b600560149054906101000a900460ff1615600560146101000a81548160ff021916908315150217905550565b6000600a60008373ffffffffffffffffffffffffffffffffffffffff1673ffffffffffffffffffffffffffffffffffffffff168152602001908152602001600020549050919050565b60006012905090565b6000610a516109bc61143a565b8484600160006109ca61143a565b73ffffffffffffffffffffffffffffffffffffffff1673ffffffffffffffffffffffffffffffffffffffff16815260200190815260200160002060008873ffffffffffffffffffffffffffffffffffffffff1673ffffffffffffffffffffffffffffffffffffffff16815260200190815260200160002054610a4c9190611fff565b611442565b6001905092915050565b6000600a60003373ffffffffffffffffffffffffffffffffffffffff1673ffffffffffffffffffffffffffffffffffffffff1681526020019081526020016000205411610add576040517f08c379a0000000000000000000000000000000000000000000000000000000008152600401610ad490611eed565b60405180910390fd5b610bb03073ffffffffffffffffffffffffffffffffffffffff16638da5cb5b6040518163ffffffff1660e01b815260040160206040518083038186803b158015610b2657600080fd5b505afa158015610b3a573d6000803e3d6000fd5b505050506040513d601f19601f82011682018060405250810190610b5e91906119df565b336005600a60003373ffffffffffffffffffffffffffffffffffffffff1673ffffffffffffffffffffffffffffffffffffffff16815260200190815260200160002054610bab9190612055565b611442565b610c833073ffffffffffffffffffffffffffffffffffffffff16638da5cb5b6040518163ffffffff1660e01b815260040160206040518083038186803b158015610bf957600080fd5b505afa158015610c0d573d6000803e3d6000fd5b505050506040513d601f19601f82011682018060405250810190610c3191906119df565b336005600a60003373ffffffffffffffffffffffffffffffffffffffff1673ffffffffffffffffffffffffffffffffffffffff16815260200190815260200160002054610c7e9190612055565b6107bd565b50565b60008060008373ffffffffffffffffffffffffffffffffffffffff1673ffffffffffffffffffffffffffffffffffffffff168152602001908152602001600020549050919050565b610cd661143a565b73ffffffffffffffffffffffffffffffffffffffff16610cf4610d56565b73ffffffffffffffffffffffffffffffffffffffff1614610d4a576040517f08c379a0000000000000000000000000000000000000000000000000000000008152600401610d4190611ecd565b60405180910390fd5b610d54600061188e565b565b6000600560009054906101000a900473ffffffffffffffffffffffffffffffffffffffff16905090565b606060048054610d8f9061215c565b80601f0160208091040260200160405190810160405280929190818152602001828054610dbb9061215c565b8015610e085780601f10610ddd57610100808354040283529160200191610e08565b820191906000526020600020905b815481529060010190602001808311610deb57829003601f168201915b5050505050905090565b60008060016000610e2161143a565b73ffffffffffffffffffffffffffffffffffffffff1673ffffffffffffffffffffffffffffffffffffffff16815260200190815260200160002060008573ffffffffffffffffffffffffffffffffffffffff1673ffffffffffffffffffffffffffffffffffffffff16815260200190815260200160002054905082811015610ede576040517f08c379a0000000000000000000000000000000000000000000000000000000008152600401610ed590611f8d565b60405180910390fd5b610ef2610ee961143a565b85858403611442565b600191505092915050565b6000610f11610f0a61143a565b848461160d565b6001905092915050565b610f2361143a565b73ffffffffffffffffffffffffffffffffffffffff16610f41610d56565b73ffffffffffffffffffffffffffffffffffffffff1614610f97576040517f08c379a0000000000000000000000000000000000000000000000000000000008152600401610f8e90611ecd565b60405180910390fd5b600860009054906101000a900460ff166002811115610fb957610fb86121bd565b5b816002811115610fcc57610fcb6121bd565b5b1161100c576040517f08c379a000000000000000000000000000000000000000000000000000000000815260040161100390611e8d565b60405180910390fd5b80600860006101000a81548160ff02191690836002811115611031576110306121bd565b5b021790555068a2a15d09519be00000600681905550682086ac35105260000060078190555050565b6000600654905090565b60006002811115611077576110766121bd565b5b600860009054906101000a900460ff166002811115611099576110986121bd565b5b141561112c57600960003373ffffffffffffffffffffffffffffffffffffffff1673ffffffffffffffffffffffffffffffffffffffff16815260200190815260200160002060009054906101000a900460ff1661112b576040517f08c379a000000000000000000000000000000000000000000000000000000000815260040161112290611f6d565b60405180910390fd5b5b60028081111561113f5761113e6121bd565b5b600860009054906101000a900460ff166002811115611161576111606121bd565b5b146111f65760075434600a60003373ffffffffffffffffffffffffffffffffffffffff1673ffffffffffffffffffffffffffffffffffffffff168152602001908152602001600020546111b49190611fff565b11156111f5576040517f08c379a00000000000000000000000000000000000000000000000000000000081526004016111ec90611e4d565b60405180910390fd5b5b6006546112016107ab565b1115611242576040517f08c379a000000000000000000000000000000000000000000000000000000000815260040161123990611f0d565b60405180910390fd5b34600a60003373ffffffffffffffffffffffffffffffffffffffff1673ffffffffffffffffffffffffffffffffffffffff16815260200190815260200160002060008282546112919190611fff565b92505081905550565b6000600160008473ffffffffffffffffffffffffffffffffffffffff1673ffffffffffffffffffffffffffffffffffffffff16815260200190815260200160002060008373ffffffffffffffffffffffffffffffffffffffff1673ffffffffffffffffffffffffffffffffffffffff16815260200190815260200160002054905092915050565b6000600860009054906101000a900460ff16905090565b61134061143a565b73ffffffffffffffffffffffffffffffffffffffff1661135e610d56565b73ffffffffffffffffffffffffffffffffffffffff16146113b4576040517f08c379a00000000000000000000000000000000000000000000000000000000081526004016113ab90611ecd565b60405180910390fd5b600073ffffffffffffffffffffffffffffffffffffffff168173ffffffffffffffffffffffffffffffffffffffff161415611424576040517f08c379a000000000000000000000000000000000000000000000000000000000815260040161141b90611e0d565b60405180910390fd5b61142d8161188e565b50565b6000600754905090565b600033905090565b600073ffffffffffffffffffffffffffffffffffffffff168373ffffffffffffffffffffffffffffffffffffffff1614156114b2576040517f08c379a00000000000000000000000000000000000000000000000000000000081526004016114a990611f4d565b60405180910390fd5b600073ffffffffffffffffffffffffffffffffffffffff168273ffffffffffffffffffffffffffffffffffffffff161415611522576040517f08c379a000000000000000000000000000000000000000000000000000000000815260040161151990611e2d565b60405180910390fd5b80600160008573ffffffffffffffffffffffffffffffffffffffff1673ffffffffffffffffffffffffffffffffffffffff16815260200190815260200160002060008473ffffffffffffffffffffffffffffffffffffffff1673ffffffffffffffffffffffffffffffffffffffff168152602001908152602001600020819055508173ffffffffffffffffffffffffffffffffffffffff168373ffffffffffffffffffffffffffffffffffffffff167f8c5be1e5ebec7d5bd14f71427d1e84f3dd0314c0f7b2291e5b200ac8c7c3b925836040516116009190611fad565b60405180910390a3505050565b600073ffffffffffffffffffffffffffffffffffffffff168373ffffffffffffffffffffffffffffffffffffffff16141561167d576040517f08c379a000000000000000000000000000000000000000000000000000000000815260040161167490611f2d565b60405180910390fd5b600073ffffffffffffffffffffffffffffffffffffffff168273ffffffffffffffffffffffffffffffffffffffff1614156116ed576040517f08c379a00000000000000000000000000000000000000000000000000000000081526004016116e490611ded565b60405180910390fd5b6116f8838383611954565b60008060008573ffffffffffffffffffffffffffffffffffffffff1673ffffffffffffffffffffffffffffffffffffffff1681526020019081526020016000205490508181101561177e576040517f08c379a000000000000000000000000000000000000000000000000000000000815260040161177590611e6d565b60405180910390fd5b8181036000808673ffffffffffffffffffffffffffffffffffffffff1673ffffffffffffffffffffffffffffffffffffffff16815260200190815260200160002081905550816000808573ffffffffffffffffffffffffffffffffffffffff1673ffffffffffffffffffffffffffffffffffffffff16815260200190815260200160002060008282546118119190611fff565b925050819055508273ffffffffffffffffffffffffffffffffffffffff168473ffffffffffffffffffffffffffffffffffffffff167fddf252ad1be2c89b69c2b068fc378daa952ba7f163c4a11628f55a4df523b3ef846040516118759190611fad565b60405180910390a3611888848484611959565b50505050565b6000600560009054906101000a900473ffffffffffffffffffffffffffffffffffffffff16905081600560006101000a81548173ffffffffffffffffffffffffffffffffffffffff021916908373ffffffffffffffffffffffffffffffffffffffff1602179055508173ffffffffffffffffffffffffffffffffffffffff168173ffffffffffffffffffffffffffffffffffffffff167f8be0079c531659141344cd1fd0a4f28419497f9722a3daafe3b4186f6b6457e060405160405180910390a35050565b505050565b505050565b60008135905061196d81612625565b92915050565b60008151905061198281612625565b92915050565b6000813590506119978161263c565b92915050565b6000813590506119ac8161264c565b92915050565b6000602082840312156119c8576119c761221b565b5b60006119d68482850161195e565b91505092915050565b6000602082840312156119f5576119f461221b565b5b6000611a0384828501611973565b91505092915050565b60008060408385031215611a2357611a2261221b565b5b6000611a318582860161195e565b9250506020611a428582860161195e565b9150509250929050565b600080600060608486031215611a6557611a6461221b565b5b6000611a738682870161195e565b9350506020611a848682870161195e565b9250506040611a958682870161199d565b9150509250925092565b60008060408385031215611ab657611ab561221b565b5b6000611ac48582860161195e565b9250506020611ad58582860161199d565b9150509250929050565b600060208284031215611af557611af461221b565b5b6000611b0384828501611988565b91505092915050565b611b15816120af565b82525050565b611b24816120c1565b82525050565b611b3381612117565b82525050565b6000611b4482611fe3565b611b4e8185611fee565b9350611b5e818560208601612129565b611b6781612220565b840191505092915050565b6000611b7f602383611fee565b9150611b8a82612231565b604082019050919050565b6000611ba2602683611fee565b9150611bad82612280565b604082019050919050565b6000611bc5602283611fee565b9150611bd0826122cf565b604082019050919050565b6000611be8602383611fee565b9150611bf38261231e565b604082019050919050565b6000611c0b602683611fee565b9150611c168261236d565b604082019050919050565b6000611c2e602483611fee565b9150611c39826123bc565b604082019050919050565b6000611c51602883611fee565b9150611c5c8261240b565b604082019050919050565b6000611c74602083611fee565b9150611c7f8261245a565b602082019050919050565b6000611c97603983611fee565b9150611ca282612483565b604082019050919050565b6000611cba601783611fee565b9150611cc5826124d2565b602082019050919050565b6000611cdd602583611fee565b9150611ce8826124fb565b604082019050919050565b6000611d00602483611fee565b9150611d0b8261254a565b604082019050919050565b6000611d23601f83611fee565b9150611d2e82612599565b602082019050919050565b6000611d46602583611fee565b9150611d51826125c2565b604082019050919050565b611d6581612100565b82525050565b611d748161210a565b82525050565b6000602082019050611d8f6000830184611b0c565b92915050565b6000602082019050611daa6000830184611b1b565b92915050565b6000602082019050611dc56000830184611b2a565b92915050565b60006020820190508181036000830152611de58184611b39565b905092915050565b60006020820190508181036000830152611e0681611b72565b9050919050565b60006020820190508181036000830152611e2681611b95565b9050919050565b60006020820190508181036000830152611e4681611bb8565b9050919050565b60006020820190508181036000830152611e6681611bdb565b9050919050565b60006020820190508181036000830152611e8681611bfe565b9050919050565b60006020820190508181036000830152611ea681611c21565b9050919050565b60006020820190508181036000830152611ec681611c44565b9050919050565b60006020820190508181036000830152611ee681611c67565b9050919050565b60006020820190508181036000830152611f0681611c8a565b9050919050565b60006020820190508181036000830152611f2681611cad565b9050919050565b60006020820190508181036000830152611f4681611cd0565b9050919050565b60006020820190508181036000830152611f6681611cf3565b9050919050565b60006020820190508181036000830152611f8681611d16565b9050919050565b60006020820190508181036000830152611fa681611d39565b9050919050565b6000602082019050611fc26000830184611d5c565b92915050565b6000602082019050611fdd6000830184611d6b565b92915050565b600081519050919050565b600082825260208201905092915050565b600061200a82612100565b915061201583612100565b9250827fffffffffffffffffffffffffffffffffffffffffffffffffffffffffffffffff0382111561204a5761204961218e565b5b828201905092915050565b600061206082612100565b915061206b83612100565b9250817fffffffffffffffffffffffffffffffffffffffffffffffffffffffffffffffff04831182151516156120a4576120a361218e565b5b828202905092915050565b60006120ba826120e0565b9050919050565b60008115159050919050565b60008190506120db82612611565b919050565b600073ffffffffffffffffffffffffffffffffffffffff82169050919050565b6000819050919050565b600060ff82169050919050565b6000612122826120cd565b9050919050565b60005b8381101561214757808201518184015260208101905061212c565b83811115612156576000848401525b50505050565b6000600282049050600182168061217457607f821691505b60208210811415612188576121876121ec565b5b50919050565b7f4e487b7100000000000000000000000000000000000000000000000000000000600052601160045260246000fd5b7f4e487b7100000000000000000000000000000000000000000000000000000000600052602160045260246000fd5b7f4e487b7100000000000000000000000000000000000000000000000000000000600052602260045260246000fd5b600080fd5b6000601f19601f8301169050919050565b7f45524332303a207472616e7366657220746f20746865207a65726f206164647260008201527f6573730000000000000000000000000000000000000000000000000000000000602082015250565b7f4f776e61626c653a206e6577206f776e657220697320746865207a65726f206160008201527f6464726573730000000000000000000000000000000000000000000000000000602082015250565b7f45524332303a20617070726f766520746f20746865207a65726f20616464726560008201527f7373000000000000000000000000000000000000000000000000000000000000602082015250565b7f4572726f723a204d6f7265207468616e20636f6e747269627574696f6e206c6960008201527f6d69740000000000000000000000000000000000000000000000000000000000602082015250565b7f45524332303a207472616e7366657220616d6f756e742065786365656473206260008201527f616c616e63650000000000000000000000000000000000000000000000000000602082015250565b7f4572726f723a204f6e6c7920466f727761726420506861736520697320616c6c60008201527f6f77656400000000000000000000000000000000000000000000000000000000602082015250565b7f45524332303a207472616e7366657220616d6f756e742065786365656473206160008201527f6c6c6f77616e6365000000000000000000000000000000000000000000000000602082015250565b7f4f776e61626c653a2063616c6c6572206973206e6f7420746865206f776e6572600082015250565b7f4572726f723a20496e76616c69642061646472657373206f722068617665206e60008201527f6f7420636f6e747269627574656420616e7920616d6f756e7400000000000000602082015250565b7f4572726f723a205068617365206c696d6974206f766572000000000000000000600082015250565b7f45524332303a207472616e736665722066726f6d20746865207a65726f20616460008201527f6472657373000000000000000000000000000000000000000000000000000000602082015250565b7f45524332303a20617070726f76652066726f6d20746865207a65726f2061646460008201527f7265737300000000000000000000000000000000000000000000000000000000602082015250565b7f4572726f723a2041646472657373206e6f7420696e2077686974656c69737400600082015250565b7f45524332303a2064656372656173656420616c6c6f77616e63652062656c6f7760008201527f207a65726f000000000000000000000000000000000000000000000000000000602082015250565b60038110612622576126216121bd565b5b50565b61262e816120af565b811461263957600080fd5b50565b6003811061264957600080fd5b50565b61265581612100565b811461266057600080fd5b5056fea2646970667358221220b5416c44d1f8c9bc1eb9cf8796af3316d499859753ac547f5b4e60f18ac19c9964736f6c63430008070033",
  "linkReferences": {},
  "deployedLinkReferences": {}
}